{
  "contractName": "DappTokenSale",
  "abi": [
    {
      "constant": true,
      "inputs": [],
      "name": "tokenSold",
      "outputs": [
        {
          "name": "",
          "type": "uint256"
        }
      ],
      "payable": false,
      "stateMutability": "view",
      "type": "function"
    },
    {
      "constant": true,
      "inputs": [],
      "name": "tokenContract",
      "outputs": [
        {
          "name": "",
          "type": "address"
        }
      ],
      "payable": false,
      "stateMutability": "view",
      "type": "function"
    },
    {
      "constant": true,
      "inputs": [],
      "name": "tokenPrice",
      "outputs": [
        {
          "name": "",
          "type": "uint256"
        }
      ],
      "payable": false,
      "stateMutability": "view",
      "type": "function"
    },
    {
      "inputs": [
        {
          "name": "_tokenContract",
          "type": "address"
        },
        {
          "name": "_tokenPrice",
          "type": "uint256"
        }
      ],
      "payable": false,
      "stateMutability": "nonpayable",
      "type": "constructor"
    },
    {
      "anonymous": false,
      "inputs": [
        {
          "indexed": false,
          "name": "_amount",
          "type": "uint256"
        },
        {
          "indexed": false,
          "name": "_buyer",
          "type": "address"
        }
      ],
      "name": "buyTokensEvent",
      "type": "event"
    },
    {
      "constant": false,
      "inputs": [
        {
          "name": "_amount",
          "type": "uint256"
        }
      ],
      "name": "buyTokens",
      "outputs": [],
      "payable": true,
      "stateMutability": "payable",
      "type": "function"
    },
    {
      "constant": true,
      "inputs": [
        {
          "name": "a",
          "type": "uint256"
        },
        {
          "name": "b",
          "type": "uint256"
        }
      ],
      "name": "multiply",
      "outputs": [
        {
          "name": "result",
          "type": "uint256"
        }
      ],
      "payable": false,
      "stateMutability": "pure",
      "type": "function"
    }
  ],
  "bytecode": "0x608060405234801561001057600080fd5b506040516040806103d08339810180604052604081101561003057600080fd5b810190808051906020019092919080519060200190929190505050336000806101000a81548173ffffffffffffffffffffffffffffffffffffffff021916908373ffffffffffffffffffffffffffffffffffffffff16021790555081600160006101000a81548173ffffffffffffffffffffffffffffffffffffffff021916908373ffffffffffffffffffffffffffffffffffffffff1602179055508060028190555050506102ec806100e46000396000f3fe60806040526004361061004a5760003560e01c8063165c4a161461004f5780633610724e146100a8578063519ee19e146100d657806355a373d6146101015780637ff9b59614610158575b600080fd5b34801561005b57600080fd5b506100926004803603604081101561007257600080fd5b810190808035906020019092919080359060200190929190505050610183565b6040518082815260200191505060405180910390f35b6100d4600480360360208110156100be57600080fd5b8101908080359060200190929190505050610190565b005b3480156100e257600080fd5b506100eb61028e565b6040518082815260200191505060405180910390f35b34801561010d57600080fd5b50610116610294565b604051808273ffffffffffffffffffffffffffffffffffffffff1673ffffffffffffffffffffffffffffffffffffffff16815260200191505060405180910390f35b34801561016457600080fd5b5061016d6102ba565b6040518082815260200191505060405180910390f35b6000818302905092915050565b61019c81600254610183565b3414610210576040517f08c379a000000000000000000000000000000000000000000000000000000000815260040180806020018281038252601d8152602001807f76616c7565206973207765692020657175616c20746f20746f6b656e7300000081525060200191505060405180910390fd5b806003600082825401925050819055507f5549cc8182f6e734303b813d3286ac1eaede0dec7b007a105f1edca2f3d9a7868133604051808381526020018273ffffffffffffffffffffffffffffffffffffffff1673ffffffffffffffffffffffffffffffffffffffff1681526020019250505060405180910390a150565b60035481565b600160009054906101000a900473ffffffffffffffffffffffffffffffffffffffff1681565b6002548156fea165627a7a72305820295f460244d7e41d2b65e1186e0251ed3da7029243cea5541255cabbe14703e50029",
  "source": "pragma solidity ^0.5.8;\r\n\r\nimport \"./DappToken.sol\";\r\n\r\ncontract DappTokenSale {\r\n    address admin; // dont want outside the world know me\r\n    DappToken public tokenContract;\r\n    uint256 public tokenPrice;\r\n    uint256 public tokenSold;\r\n\r\n    constructor(DappToken _tokenContract, uint256 _tokenPrice) public {\r\n        admin = msg.sender;\r\n        tokenContract = _tokenContract;\r\n        //Token price\r\n        tokenPrice = _tokenPrice;\r\n    }\r\n\r\n    event buyTokensEvent(uint256 _amount, address _buyer);\r\n\r\n    //payable: we want someone to be able to send ether via transaction with this function\r\n    function buyTokens(uint256 _amount) public payable{\r\n        //require that value is equal to tokens, ex: I want to buy 10 tokens then value is 10* 0.001 ether\r\n        require(msg.value == multiply(_amount, tokenPrice), \"value is wei  equal to tokens\");\r\n        //require that the contact have enough tokens, ex: if this contract have 1  mil, but i want to buy 2 mil then throw exception\r\n\r\n        //require transfer is successful, ex: call transfer function and to be sure it return true\r\n\r\n        //keep track the number of token sold\r\n        tokenSold += _amount;\r\n        //trigger sellEvent\r\n        emit buyTokensEvent(_amount, msg.sender);\r\n        //tokenContract.transfer(msg.sender, _amount);\r\n    }\r\n\r\n    function multiply(uint256 a, uint256 b) public pure returns(uint256 result){\r\n        return a*b;\r\n    }\r\n}",
  "sourcePath": "C:/Users/Admin/Desktop/Token_sale/contracts/DappTokenSale.sol",
  "compiler": {
    "name": "solc",
    "version": "0.5.8+commit.23d335f2.Emscripten.clang"
  },
  "schemaVersion": "3.0.16",
  "updatedAt": "2019-11-02T14:11:49.648Z",
  "devdoc": {
    "methods": {}
  },
  "userdoc": {
    "methods": {}
  }
}