{
  "contractName": "DappTokenSale",
  "abi": [
    {
      "constant": true,
      "inputs": [],
      "name": "tokenSold",
      "outputs": [
        {
          "name": "",
          "type": "uint256"
        }
      ],
      "payable": false,
      "stateMutability": "view",
      "type": "function"
    },
    {
      "constant": true,
      "inputs": [],
      "name": "tokenContract",
      "outputs": [
        {
          "name": "",
          "type": "address"
        }
      ],
      "payable": false,
      "stateMutability": "view",
      "type": "function"
    },
    {
      "constant": true,
      "inputs": [],
      "name": "tokenPrice",
      "outputs": [
        {
          "name": "",
          "type": "uint256"
        }
      ],
      "payable": false,
      "stateMutability": "view",
      "type": "function"
    },
    {
      "inputs": [
        {
          "name": "_tokenContract",
          "type": "address"
        },
        {
          "name": "_tokenPrice",
          "type": "uint256"
        }
      ],
      "payable": false,
      "stateMutability": "nonpayable",
      "type": "constructor"
    },
    {
      "anonymous": false,
      "inputs": [
        {
          "indexed": false,
          "name": "_amount",
          "type": "uint256"
        },
        {
          "indexed": false,
          "name": "_buyer",
          "type": "address"
        }
      ],
      "name": "buyTokensEvent",
      "type": "event"
    },
    {
      "constant": false,
      "inputs": [
        {
          "name": "_amount",
          "type": "uint256"
        }
      ],
      "name": "buyTokens",
      "outputs": [],
      "payable": true,
      "stateMutability": "payable",
      "type": "function"
    },
    {
      "constant": false,
      "inputs": [],
      "name": "endSale",
      "outputs": [],
      "payable": false,
      "stateMutability": "nonpayable",
      "type": "function"
    }
  ],
  "bytecode": "0x608060405234801561001057600080fd5b506040516040806107718339810180604052604081101561003057600080fd5b810190808051906020019092919080519060200190929190505050336000806101000a81548173ffffffffffffffffffffffffffffffffffffffff021916908373ffffffffffffffffffffffffffffffffffffffff16021790555081600160006101000a81548173ffffffffffffffffffffffffffffffffffffffff021916908373ffffffffffffffffffffffffffffffffffffffff16021790555080600281905550505061068d806100e46000396000f3fe60806040526004361061004a5760003560e01c80633610724e1461004f578063380d831b1461007d578063519ee19e1461009457806355a373d6146100bf5780637ff9b59614610116575b600080fd5b61007b6004803603602081101561006557600080fd5b8101908080359060200190929190505050610141565b005b34801561008957600080fd5b506100926104e4565b005b3480156100a057600080fd5b506100a96105bf565b6040518082815260200191505060405180910390f35b3480156100cb57600080fd5b506100d46105c5565b604051808273ffffffffffffffffffffffffffffffffffffffff1673ffffffffffffffffffffffffffffffffffffffff16815260200191505060405180910390f35b34801561012257600080fd5b5061012b6105eb565b6040518082815260200191505060405180910390f35b61014d816002546105f1565b34146101c1576040517f08c379a000000000000000000000000000000000000000000000000000000000815260040180806020018281038252601d8152602001807f76616c7565206973207765692020657175616c20746f20746f6b656e7300000081525060200191505060405180910390fd5b80600160009054906101000a900473ffffffffffffffffffffffffffffffffffffffff1673ffffffffffffffffffffffffffffffffffffffff166370a08231306040518263ffffffff1660e01b8152600401808273ffffffffffffffffffffffffffffffffffffffff1673ffffffffffffffffffffffffffffffffffffffff16815260200191505060206040518083038186803b15801561026157600080fd5b505afa158015610275573d6000803e3d6000fd5b505050506040513d602081101561028b57600080fd5b81019080805190602001909291905050501015610310576040517f08c379a000000000000000000000000000000000000000000000000000000000815260040180806020018281038252600d8152602001807f636865636b2062616c616e63650000000000000000000000000000000000000081525060200191505060405180910390fd5b600160009054906101000a900473ffffffffffffffffffffffffffffffffffffffff1673ffffffffffffffffffffffffffffffffffffffff1663a9059cbb33836040518363ffffffff1660e01b8152600401808373ffffffffffffffffffffffffffffffffffffffff1673ffffffffffffffffffffffffffffffffffffffff16815260200182815260200192505050602060405180830381600087803b1580156103b957600080fd5b505af11580156103cd573d6000803e3d6000fd5b505050506040513d60208110156103e357600080fd5b8101908080519060200190929190505050610466576040517f08c379a00000000000000000000000000000000000000000000000000000000081526004018080602001828103825260188152602001807f7472616e7366657220746f6b656e7320746f206275796572000000000000000081525060200191505060405180910390fd5b806003600082825401925050819055507f5549cc8182f6e734303b813d3286ac1eaede0dec7b007a105f1edca2f3d9a7868133604051808381526020018273ffffffffffffffffffffffffffffffffffffffff1673ffffffffffffffffffffffffffffffffffffffff1681526020019250505060405180910390a150565b6000809054906101000a900473ffffffffffffffffffffffffffffffffffffffff1673ffffffffffffffffffffffffffffffffffffffff163373ffffffffffffffffffffffffffffffffffffffff16146105a6576040517f08c379a00000000000000000000000000000000000000000000000000000000081526004018080602001828103825260188152602001807f6f6e6c792061646d696e2063616e2063616c6c2074686973000000000000000081525060200191505060405180910390fd5b3373ffffffffffffffffffffffffffffffffffffffff16ff5b60035481565b600160009054906101000a900473ffffffffffffffffffffffffffffffffffffffff1681565b60025481565b60008082148061060e575082828385029250828161060b57fe5b04145b61065b576040517f08c379a0000000000000000000000000000000000000000000000000000000008152600401808060200182810382526000815260200160200191505060405180910390fd5b9291505056fea165627a7a72305820cf40a3d45214531e81591628dc4861c2900fc5ef253731d46658a9303a6872780029",
  "source": "pragma solidity ^0.5.8;\r\n\r\nimport \"./DappToken.sol\";\r\n\r\ncontract DappTokenSale {\r\n    address admin; // dont want outside the world know me\r\n    DappToken public tokenContract;\r\n    uint256 public tokenPrice;\r\n    uint256 public tokenSold;\r\n\r\n    constructor(DappToken _tokenContract, uint256 _tokenPrice) public {\r\n        admin = msg.sender;\r\n        tokenContract = _tokenContract;\r\n        //Token price\r\n        tokenPrice = _tokenPrice;\r\n    }\r\n\r\n    event buyTokensEvent(uint256 _amount, address _buyer);\r\n\r\n    function multiply(uint256 a, uint256 b) internal pure returns(uint256 success){\r\n        require(b == 0 || (success = a * b) / b == a, '');\r\n    }\r\n\r\n    //payable: we want someone to be able to send ether via transaction with this function\r\n    function buyTokens(uint256 _amount) public payable{\r\n        //require that value is equal to tokens, ex: I want to buy 10 tokens then value is 10* 0.001 ether\r\n        require(msg.value == multiply(_amount, tokenPrice), \"value is wei  equal to tokens\");\r\n        //require that the contact have enough tokens, ex: if this contract have 1  mil, but i want to buy 2 mil then throw exception\r\n        require(tokenContract.balanceOf(address(this)) >= _amount, \"check balance\");\r\n        //require transfer is successful, ex: call transfer function and to be sure it return true\r\n        require(tokenContract.transfer(msg.sender, _amount), 'transfer tokens to buyer');\r\n        //keep track the number of token sold\r\n        tokenSold += _amount;\r\n        //trigger sellEvent\r\n        emit buyTokensEvent(_amount, msg.sender);\r\n        //tokenContract.transfer(msg.sender, _amount);\r\n    }\r\n\r\n    // End Tokens Sale\r\n    function endSale() public {\r\n        //Require admin\r\n        require(msg.sender == admin, 'only admin can call this');\r\n        //transfer remain tokens to admin\r\n       // require(tokenContract.transfer(admin, tokenContract.balanceOf(address(this))), 'transfer unsold to admin address');\r\n        //dont using selfdestruct\r\n        selfdestruct(msg.sender);\r\n    }\r\n}",
  "sourcePath": "C:/Users/Admin/Desktop/Token_sale/contracts/DappTokenSale.sol",
  "compiler": {
    "name": "solc",
    "version": "0.5.8+commit.23d335f2.Emscripten.clang"
  },
  "schemaVersion": "3.0.17",
  "updatedAt": "2019-11-20T06:54:54.827Z",
  "devdoc": {
    "methods": {}
  },
  "userdoc": {
    "methods": {}
  }
}